:020000040800F2
:10000000F88F0020ED020008AD060008A5060008E4
:10001000A9060008710600086D070008000000002E
:10002000000000000000000000000000E1060008E1
:10003000A106000800000000DD060008E506000833
:100040000703000807030008070300080703000868
:100050000703000807030008070300080703000858
:100060000703000807030008070300080703000848
:100070000703000807030008070300080703000838
:100080000703000807030008070300080703000828
:100090000703000807030008070300080703000818
:1000A0000703000807030008070300080703000808
:1000B00007030008070300085107000807030008AA
:1000C00007030008070300080703000807030008E8
:1000D00007030008070300080703000807030008D8
:1000E00007030008070300080703000807030008C8
:1000F00007030008070300080703000807030008B8
:1001000007030008070300080703000807030008A7
:100110000703000807030008070300080703000897
:100120000703000807030008750600080703000816
:100130000703000807030008070300080703000877
:100140000703000807030008070300080703000867
:100150000703000807030008000000000703000869
:10016000070300080703000800000000000000006B
:100170000703000807030008070300080000000049
:100180000000000007030008070300080703000839
:10019000070300080000000000000000000000004D
:1001A000000000000000000000000000070300083D
:1001B000070300080000000007030008000000001B
:1001C000000000000000000000000000000000002F
:1001D00000000000000000000703000807030008FB
:1001E00007030008070300080703000807030008C7
:1001F00007030008070300080703000807030008B7
:1002000007030008070300080703000800F002F8CE
:1002100000F05CF80AA090E8000C82448344AAF144
:100220000107DA4501D100F051F8AFF2090EBAE842
:100230000F0013F0010F18BFFB1A43F0010318471A
:1002400040490300604903000A444FF0000C10F8D5
:10025000013B13F0070408BF10F8014B1D1108BF44
:1002600010F8015B641E05D010F8016B641E01F8E4
:10027000016BF9D113F0080F1EBF10F8014BAD1C34
:100280000C1B09D16D1E58BF01F801CBFAD505E052
:1002900014F8016B01F8016B6D1EF9D59142D6D3AC
:1002A000704700000023002400250026103A28BFD4
:1002B00078C1FBD8520728BF30C148BF0B607047D8
:1002C0001FB51BF043FF1FBD10B510BD00F09EF918
:1002D0001146FFF7F5FF18F01FFF00F0BCF903B45B
:1002E000FFF7F2FF03BC01F0FDFC00000948804766
:1002F00009480047FEE7FEE7FEE7FEE7FEE7FEE708
:10030000FEE7FEE7FEE7FEE704480549054A064B1F
:1003100070470000E90600080D020008F889002077
:10032000F88F0020F88B0020F88B0020704753EAEC
:10033000020C00F069802DE9F04B4FF00006002B15
:100340001FBFB3FA83F503FA05F424FA05F65E40FD
:1003500012BF1643B2FA82F502FA05F4C5F1200580
:100360001EBF22FA05FC44EA0C04203556EA044C70
:100370004FEA144418BF641C4FF000084FF0000906
:10038000904271EB030C39D3002919BFB1FA81F700
:1003900001FA07F6B0FA80F700FA07F6C7F120076E
:1003A0001EBF20FA07FC46EA0C062037B6FBF4FC19
:1003B000A7EB0507103F07F01F0BCBF120062CFA27
:1003C00006F60CFA0BFB44BFB3460026202FA4BF51
:1003D0005E464FF0000B5BEA060C08BF4FF0010BC6
:1003E00019EB0B0948EB0608ABFB027C06FB02CCC1
:1003F0000BFB03CCC01B71EB0C01C1E70B460246A3
:1004000041464846BDE8F08B13B5084318BF4FF08E
:10041000FF300146AFF30080BDE81C40704700008C
:1004200010B5044603E009F0D7F9401C09D014F8D0
:10043000010B05490028F6D1BDE810400A2009F05B
:10044000CBB94FF0FF3010BD3C08002040EA01035B
:10045000024630B59B0710D14FF0013400E008C2CE
:1004600008C91D1B9D4315EAC41FF8D013F0FF01F6
:1004700002F8011B0DD01B0AF8E711F8013B002B15
:1004800002F8013B05D011F8013B002B02F8013BBB
:10049000F3D130BD10B5431C02E010F8011B71B15F
:1004A0008107FAD14FF0013202C88C1A8C4314EA4A
:1004B000C211F9D0C01A0A0603D0C01E10BDC01A5E
:1004C00010BD0A0401D0801E10BD0902FCD0401EE0
:1004D00010BD02F0FF0343EA032242EA024200F0A9
:1004E0000AB802F0FF0343EA032242EA024200F0A4
:1004F00024B84FF000020429C0F0128010F0030C61
:1005000000F01B80CCF1040CBCF1020F18BF00F806
:10051000012BA8BF20F8022BA1EB0C0100F00DB8B5
:100520005FEAC17C24BF00F8012B00F8012B48BF13
:1005300000F8012B70474FF0000200B513469446B7
:100540009646203922BFA0E80C50A0E80C50B1F12B
:100550002001BFF4F7AF090728BFA0E80C5048BF3F
:100560000CC05DF804EB890028BF40F8042B08BFDD
:10057000704748BF20F8022B11F0804F18BF00F8D9
:10058000012B70470000000030B44FF0013C50F8E0
:10059000042B51F8043BCCFA52F4D51A20D1FCB903
:1005A00050F8042B51F8043BCCFA52F4D51A17D169
:1005B000B4B950F8042B51F8043BCCFA52F4D51AD4
:1005C0000ED16CB950F8042B51F8043BCCFA52F41C
:1005D000D51A05D1002CDAD030BC4FF0000070479E
:1005E00029BAB1FA81F111F01801D1F1200084404B
:1005F000F2D1CA40CB4012F0FF0213F0FF0330BC2F
:10060000D01A70477047704770477047754600F0C2
:100610002BF8AE4605006946534620F00700854694
:1006200018B020B5FFF770FEBDE820404FF000067F
:100630004FF000074FF000084FF0000BAC46ACE85D
:10064000C009ACE8C009ACE8C009ACE8C00921F0B9
:1006500007018D46704710B50446AFF30080204671
:10066000BDE81040FFF73BBE00487047B8070020C8
:10067000FEE7000080B54FF4007004F005FA46F282
:100680003040C4F20200002104F0F8F940F6945022
:10069000C2F200000068002818BF0CF091FF80BD76
:1006A00070470000FEE70000FEE700007047000012
:1006B00000F0070080F00703042B28BF04234FF04D
:1006C000FF3C03380CFA03F338BF00209943814004
:1006D0000CFA00F022EA000008437047704700005F
:1006E00070470000704700004EF68850CEF20000C0
:1006F000026843F6000142F47002C4F20201026093
:100700000A6842F001020A600A689207FCD58A680A
:1007100022F003028A6000BF8A6812F00C0FFBD13E
:100720000A684FF6FF73CFF6F2631A4043F20203F2
:100730000A600022C0F203038A604B60C1F8A02067
:100740004FF41F02CA604FF0006140F8801C7047F0
:1007500040F61000C4F200000021016048F6E410E9
:10076000C2F200000168013101607047FEE700003D
:10077000002848BF704700F01F01012202FA01F172
:100780004EF200124009CEF2000242F820107047EB
:100790004EF60C50CEF200000068C0F30220704705
:1007A0004EF6145300F00F02CEF2000309011A4472
:1007B00000F16043B0F1FF3FC8BF03F56442117020
:1007C000704700004EF60C51CEF200010A684FF659
:1007D000FF031A4060F30A2242F0806040F0FD708F
:1007E0000860704770B505680446287800F01AF86C
:1007F000002804BF002070BD681E0025064600BF0B
:10080000811C216016F8011F05EB8502807801EB41
:100810004201A1F1300500F005F800283046EFD183
:10082000284670BDA0F1300100200A2938BF012000
:100830007047000010B540F69000C2F2000044215D
:1008400000F056FC42F24D40C0F600000A210022A2
:10085000002417F03DFF40F69C01C2F20001086041
:1008600001F096FD40F62420C2F20000047010BD95
:1008700070B50346B1F90000B2F90040B1F902C009
:10088000B2F90250B1F904E0B2F90460A042B1F942
:100890000610B2F90620C8BF0446AC451C80C8BF8C
:1008A0006546B6455D80B8BF764691429E80B8BF2A
:1008B0000A460020B4424FF00001D8BF0121954202
:1008C000D8BF01200840DA8070BD00002DE9F04358
:1008D00081B00C46B0F90070B1F900108F423DDBD9
:1008E000B0F90260B4F902108E4237DBB0F904901F
:1008F000B4F90410894531DCB0F90680B4F906007A
:1009000080452BDC15466AB3694620462A46ADF879
:100910000070ADF8026000F097F8F8B16946204623
:100920002A46ADF80090ADF8026000F08DF8A8B14D
:10093000694620462A46ADF80070ADF8028000F006
:1009400083F858B1694620462A46ADF80090ADF8C4
:10095000028000F079F801B0BDE8F083002001B01A
:10096000BDE8F083012001B0BDE8F083B0F90020BC
:10097000B1F904309A4213DCB0F90420B1F9003027
:100980009A420DDBB0F90220B1F906309A4207DC39
:10099000B0F90600B1F902108842A4BF01207047E7
:1009A000002070472DE9F04381B00C46B0F9046097
:1009B000B1F900108E4211DBB0F90670B4F90210E3
:1009C0008F420BDBB0F90080B4F90410884505DCD8
:1009D000B0F90290B4F90600814503DD012001B0B1
:1009E000BDE8F0831546EAB1694620462A46ADF8CF
:1009F0000080ADF8029000F027F898B969462046CB
:100A00002A46ADF80060ADF8029000F01DF848B934
:100A1000694620462A46ADF80080ADF8027000F025
:100A200013F818B1002001B0BDE8F08369462046F4
:100A30002A46ADF80060ADF8027000F005F880F0CD
:100A4000010001B0BDE8F0832DE9F04F83B0064608
:100A5000B1F90000B6F90070B8420EDBB6F904A097
:100A600050450ADCB1F90200B6F902800C46404557
:100A700003DBB6F90690484503DD002003B0BDE86E
:100A8000F08F1546012A6BDB30460CF031F981B24C
:100A900000EBD1300FFA80FB4FEA6B00009030463C
:100AA0000CF0A6F881B200EBD13000B200994610EC
:100AB000B1EB600FB8BF4FEA6B06AE42A8BF2E463F
:100AC000ADF80470374406EB080501A82146002262
:100AD000ADF80870ADF80680ADF80A50FFF7B4FF26
:100AE00030B1B819ADF80800A819ADF80A0022E035
:100AF000A9EB060B01A821460022ADF806B0ADF81F
:100B00000A90FFF7A1FF18B1B819ADF808000EE080
:100B1000AAEB060701A821460022ADF80470ADF843
:100B200008A0FFF791FF68B1B81BADF80400ABEB6C
:100B30000600ADF8060001A8214616F07BFE03B0C2
:100B4000BDE8F08F01A821460022ADF80680ADF87F
:100B50000A50FFF779FF18B1B81BADF80400C3E7DE
:100B6000012003B0BDE8F08F70B5B1F90030B2F9E3
:100B70000040B1F902C0B2F90250B1F904E0B2F993
:100B80000460A342B1F90610B2F90620B8BF1C46B2
:100B9000AC450480B8BF6546B6454580C8BF7646BB
:100BA00086809142C8BF0A46C28070BD80B50028C9
:100BB00008BF0CF00BFD002814BF4068002080BD6A
:100BC00070B582B0054617F07FFD04460020019005
:100BD0000DB1E86801E00CF0F9FC40F64C25016924
:100BE000C2F200052860084616F04CFD28684069EE
:100BF000002818BF16F046FD2868C06916F042FDAF
:100C00002868006A16F03EFD28680169002900F096
:100C1000858016F09DFE19F067FA2868B0F850112B
:100C2000E9B130304FF4807112F06AFA286820215F
:100C300000F5987012F064FA28680021A0F85011AD
:100C4000204617F03BFD019028680068436A33B1E5
:100C500048F6C812C2F2000201991268984712F0D1
:100C60003DF800F0C7F800F09BF848F6B016C2F265
:100C700000067469D4BB11F0CDFE11F067F97F2135
:100C80000022044616F0EEFB0CF0C4F981B22046B7
:100C9000002216F0DFFB0CF0A1FB81B220460022FF
:100CA00016F04CFC20460321002216F02FFC2046B3
:100CB0000321002216F012FC20460321002216F028
:100CC00015FC20460321002216F018FC20460321C3
:100CD000002216F02BFC2DA1204611F035FE2046F7
:100CE00006210022002312F041FB7461306817F0E6
:100CF000E5FC80084A2816D848F6C810C2F2000061
:100D0000006841F2893188423DD30198D6E9011249
:100D10000844511CC6E9010102B070BD0021A0F8D1
:100D2000501102B070BD17F0CFFC296830604968DF
:100D300029B108684FF47A71B1FBF0F000E064204B
:100D400071680546002904BF01217160B16829B1AD
:100D50004FF47A7273685143B1FBF3F50021C6E991
:100D60000111854288BF0546D6E903102844306149
:100D7000481CF06017F018FDC0F1640304A1204680
:100D80002A4611F01BFE02B070BD00BF3F000000FC
:100D90002575204650530A257525252043505500BA
:100DA000B0B540F6A0050024C2F20005285900287D
:100DB00018BF12F035F828191C2112F0A1F91C34C3
:100DC000702C08BFB0BDF1E740F65831C2F2000107
:100DD000096804E00A7E42F001020A7649690029A6
:100DE00008BF70474A688242F4D00A688242F5D14F
:100DF000F0E700007047000080B540F69C10C2F29A
:100E00000000042100F074F980BD000080B540F6B8
:100E1000AC10C2F20000202100F06AF980BD000091
:100E20002DE9F04F85B00E9E1D46002B834608BF6E
:100E3000B6F5807F6DD0DDF83C800023019301A8DA
:100E4000ADF80810CDF80A30ADF80E20ADF810104E
:100E5000ADF81220294632464346071D00F1080925
:100E600000F10C0A16F03AFC384629463246434651
:100E700016F034FC484629463246434616F02EFC0E
:100E8000504629463246434616F028FCBDF9042058
:100E9000BDF90830BDF90C60BDF910409A421F46FB
:100EA000BDF90610BDF90A00B8BF1746A64225468F
:100EB000B8BF3546AF42B8BF3D46AF1E9A42ABF809
:100EC0000070C8BF1346A642C8BF3446A342C8BF7D
:100ED0001C46A21CBDF90E30BDF91260ABF804200F
:100EE00081420246B8BF0A46B3423746B8BF1F46E2
:100EF000BA42B8BF1746BA1E8142ABF80220C8BF3B
:100F00000846B342C8BF1E46B042C8BF0646B01C22
:100F100006E00020CBF80000481EABF80400501E8D
:100F2000ABF8060005B0BDE8F08F0000F0B581B069
:100F300016460C46074617F0C7FBA2B240F6B81497
:100F4000C2F20004054620463946334610F05CFBE9
:100F500068B1E0690021A16218B9284617F0AEFB1C
:100F6000E061E069002804BF0120E06107E020465D
:100F70002C2112F0C5F84FF00040A062002420465A
:100F800001B0F0BD10B540F6E410C2F2000014212B
:100F900000F0AEF810F0F2FA002808BF10BD40F6DD
:100FA0002D71C0F60101044610F0B8FB41F2753115
:100FB000C0F60101204610F0B3FB41F2DD41C0F65E
:100FC0000101204610F0AEFB40F6F561C0F60101CC
:100FD000204610F0A1FB10BDF0B585B004460D46CB
:100FE00010B134B905B0F0BD0CF0F0FA0446002C95
:100FF000F8D020460CF05EFB0028F3D094F82800CF
:101000004007EFD40020C5B3029020460CF0F6FA5A
:101010000138ADF80C0020460CF036FB0138ADF875
:101020000E00684602AA2946FFF722FC0028D9D004
:101030002068017C890724D482690AB169469047F7
:10104000B4F8500190B104F1300500276E4600BF9E
:10105000304629460022FFF739FC0028C2D1B4F8F7
:1010600050010137874205F10805F1D31F2816D832
:1010700004EBC0003030694617E0A4F8500105B019
:10108000F0BD0298039920630120A4F85001606824
:1010900061630028A6D017F04BFC05B0F0BD00201E
:1010A000A4F8500104F1300002A90BF029FDB4F8B6
:1010B0005011606801310028A4F8501118BF17F0D2
:1010C00037FC05B0F0BD0000002814BF40680020C8
:1010D000704700000068084440687047006808587E
:1010E00070470000002814BF80680020704700008F
:1010F0000331002221F00301C0E900128260704731
:10110000B0B504460068083011F0C4FD0546A0B132
:1011100020462946002218F0F3FB62682046294643
:1011200018F0E6FB616819B120462A4618F0E8FB82
:10113000A0686560002808BFA5602846B0BD000013
:10114000B0B504460068083011F0A4FD0546A0B112
:1011500020462946002218F0CBFBA26820462946EB
:1011600018F0CEFBA16819B120462A4618F0C0FB42
:101170006068A560002808BF65602846B0BD000013
:1011800028B1416809B9806808B100207047012082
:101190007047000070B5002808BF70BD04460D46BA
:1011A000FFF792FFA8421AD02046FFF79BFF0646A2
:1011B00020462946FFF792FFAE4206461BD0204646
:1011C0002946FFF787FF0546204631462A4618F094
:1011D0008FFB20462946324618F092FB70BD204610
:1011E0002946FFF777FF606068B10146204600227C
:1011F00018F086FB70BDA66046B12046314600223D
:1012000018F076FB70BD0020A06070BD002060600B
:1012100070BD000010B50446006882680AB121461E
:10122000904720680068002808BF10BD2060204655
:10123000FFF7F0FF10BD00008068002814BFC08ACF
:10124000002000B270470000806800280EBF002018
:10125000807E80097047000070B50E4611431BD098
:101260001546044612F010FAA0680123018A428A4A
:101270003144018251194182204631462A4615F0F7
:1012800059F820460B2100220FF046F8012818BF1C
:1012900070BD204614F0A2FF012070BDF0B581B0F2
:1012A000144690B106460F4613F0F2FF78B105469A
:1012B000006870B13046394613F0F0FF58B12B6822
:1012C0000246A1B22846984706E0204604E02046A0
:1012D00002E0204600E02046C0EA040001B0F0BD74
:1012E0002DE9F04F91B00446408CDDF868B040F035
:1012F0000400608422841646BBF8082020461F465E
:101300008A4614F081FA2784BBF808200546204657
:10131000514614F079FA618C814621F004004D4564
:10132000608406D104BF89EA05005FEA004000F04E
:1013300087802684BBF808202046514614F064FAC2
:10134000804620465146278409F09CF90068BBF886
:101350000810424616F00AFEBBF808000B2828D1F8
:1013600047F6FF76B14518BFB04522D1204614F0AC
:10137000E1FC81B200EBD13000B24510204613F001
:101380004FF881B200EBD13000B2B0454FEA6000B7
:1013900005D1691C00F101084145B8BF884647F6F0
:1013A000FF71894505D1691C00F101094945B8BFA4
:1013B000894640F60020C2F20000FFF7A1FE002897
:1013C0003ED0C0E9038904600646BBF808006C46BD
:1013D000B0802046C6F808A00AF0A4FE2046314698
:1013E0000AF04CFF4BF68901C0F6010120460AF0D5
:1013F000F5FE20460AF01EFF4BF6DD11C0F6010196
:1014000020460AF007FF20460021FF220AF024FFB1
:10141000BBF8001020460AF015FFBBF8021020466A
:101420000AF0CEFEDBF80C1020460AF0E3FE204660
:101430000AF0CAFEDBF81000069020460AF032FFE0
:1014400011B0BDE8F08F000080B540F60020C2F278
:1014500000001421FFF74CFE80BD00002DE9F04F85
:1014600081B00446408C10F4FC7F00F01C816FEAD0
:1014700001096FEA020B4FF0000AE84600250AE076
:101480000120002800F01281608C0135C0F3C500F6
:10149000854280F00D81E66806EBC5004068810159
:1014A000F2D420F07F4016F0BBF810EA090100EA00
:1014B0000B00B0FA80F04FEA501018BF01214140F4
:1014C000DED156F8356010213046424616F0CEFA8D
:1014D00080BB30461121424616F0C8FA50BB304658
:1014E0001221424616F0C2FA20BB30461321424672
:1014F00016F0BCFAF0B930461521424616F0B6FA9D
:10150000C0B930461421424616F0B0FA90B93046C0
:101510000A21424616F0AAFA60B930466A214246CC
:1015200016F0A4FA30B930466B21424616F09EFA06
:10153000002859D00127002F60D13046682142464B
:1015400016F094FA002849D130466921424616F037
:101550008DFA002842D130466D21424616F086FAB7
:10156000E0BB30466C21424616F080FAB0BB3046F4
:101570003721424616F07AFA80BB3046382142467F
:1015800016F074FA50BB30463521424616F06EFA1A
:1015900020BB30464021424616F068FAF0B930468A
:1015A0004521424616F062FAC0B930464121424612
:1015B00016F05CFA90B930464221424616F056FACF
:1015C00060B930464321424616F050FA30B93046F1
:1015D0004921424616F04AFA00285BD04FF0020A31
:1015E000002F3FF44DAF0CE0304601214246012769
:1015F00016F03CFA50B100BF002F9ED0002F3FF4F0
:101600003FAF002000287FF43FAF4FE03046042179
:10161000424616F02BFA00287FF48CAF30460221A8
:10162000424616F023FA00287FF484AF30460321A7
:10163000424616F01BFA00287FF47CAF30460521A5
:10164000424616F013FA00287FF474AF30460621A4
:10165000424616F00BFA00287FF46CAF3046322178
:10166000424616F003FA00287FF464AF30466D213D
:10167000424616F0FBF900287FF45CAF30466C213F
:10168000424616F0F3F90746002818BF0127002F3D
:10169000B4D152E7BAF1000F08BF4FF0010A002F92
:1016A0003FF4EEAEADE74FF0000A01E04FF0030A61
:1016B0005FFA8AF001B0BDE8F08F000040F64C20E0
:1016C000C2F200000068704780B518F0D3F980BD01
:1016D000C0F30410072828BF072070474FF6FF719A
:1016E000884204BF1F207047002804BF00207047B5
:1016F0006F2805D84CF27C21C0F60101085C7047C8
:1017000040F60C21C2F20001096851B140F61022E6
:10171000C2F200027038126880B2824284BF085C54
:10172000704700207047000080B540F61820C2F2D4
:1017300000001821FFF7DCFC012017F003F880BD42
:101740002DE9F04140F20808C2F200081446D8F82A
:1017500000200F4619461D4606469047386040B1A6
:101760002868D8F800203044002190472060BDE868
:10177000F08100202060BDE8F08100002DE9F04FED
:1017800087B0DDF840900446B9F1000F1F4690463F
:101790008B461CBF0020A9F8000034B3BBF1000F3A
:1017A0004FF0000079D02178002976D0DDF844A0F0
:1017B0001AF0060F1DD00020012142F2014200E084
:1017C0000130235C0D2BFBD801FA03F71742F7D049
:1017D000002B18BF0130B9F1000F5ED04FF6FF713A
:1017E000A9F8001007B0BDE8F08F002007B0BDE8F1
:1017F000F08F0026012F8DF81B60059634DB2078D2
:1018000090B32046002100260022B1FA81F1049213
:10181000490904AA019203913BB2594642460DF18F
:101820001B05CDF800A0029517F0BEF9BDF8101009
:101830000E44C8B1059B227818440A2A059013D09B
:101840000D2A11D0225C0D2A0CD00A2A0AD0781A4F
:1018500007B2012F08DB0599605C002804EB01004A
:10186000D2D101E001300590059880B940F208001E
:10187000C2F20000026805A920469047B9F1000FA6
:1018800005D00146584600220EF080FE0646B9F10A
:10189000000F18BFA9F80060059807B0BDE8F08FE9
:1018A000A0F59C4145F2A61291423CBF0120704731
:1018B000202802BF002181F00100704744F2827CA1
:1018C0000122C0F6030C00BFD11FB1FA81F14FEA2B
:1018D000511104D01CF8023001328342F4D181F05E
:1018E0000100704723290AD103780022022B08D077
:1018F000012B09D0002B04BF0122027006E0002258
:1019000004E00270012201E0002202700378012B42
:1019100006D120291CBF012070470221012201703D
:10192000104670472DE9F04182B080460B46CDE964
:101930000011002000214246002517F0DDFB461C67
:101940000446304611F0A6F938B10555019B3146E1
:101950004246074617F0D0FB3D46284602B0BDE898
:10196000F08100002DE9F04702B3DDF820909A469F
:1019700014460F46804606E064F001003044441CE3
:1019800005EB0A0774B1660806FB0A75404629464E
:10199000C8470128F0DAB0F1FF3F3446F2DD2846AF
:1019A000BDE8F08700252846BDE8F0870020BDE8A7
:1019B000F08700002DE9F04F85B0149C0DF1380937
:1019C0009246DDE9122599E8C0028B46A1078046C0
:1019D00035D44DB1E00708D014F00C0018BF012039
:1019E00040EA09002D1A00E00025974219D21F2F66
:1019F00017D8F94311444446C7F11F08F01941456F
:101A000038BF884608F1010130229946FEF761FD92
:101A1000129A4B46DDF8409008EB0700A046149C54
:101A2000471CE0070BD0AF4209D21F2F07D8302048
:101A300039460137AF42705438BF202FF8D3E00643
:101A400029D5119861050CD45FB1974218BFAF42F8
:101A500007D1791E0A4618BFBA1E102818BF0A46B9
:101A6000174610280BD114F0200103D1202F01D2EA
:101A7000782009E019B1202F01D2582004E0022873
:101A800004D11F2F02D86220F05501371F2F9EBFAF
:101A90003020F05501371F2F11D8B9F1000F03D0B6
:101AA0002D20F05501370AE0600705D4200742BF1A
:101AB0002020F055013702E02B20F0550137404639
:101AC00059465246CDE900670295039400F0A6F806
:101AD00005B0BDE8F08F00002DE9F04F91B016463B
:101AE000DDE91AC21F46DDE91CB3DDF87C90BCF1CC
:101AF000000F08BF29F01009BCF1000FCDE90767FE
:101B000004D119F4806401D000241EE009F02004FF
:101B100084F0610404F1F60800250DF1240A00BFE9
:101B2000BCFBFBF7464607FB1BC404F0FE0EBEF1F0
:101B30000A0F38BF302626446C1CDC450AF80560C5
:101B400003D31F2D2546BC46EAD309AFCDE9007467
:101B5000CDE9022B0493DDE907231E9FCDF81890F1
:101B60000597FFF727FF11B0BDE8F08F2DE9F04F83
:101B700093B0DDE91C65DDF8908056EA0507209CEE
:101B800008BF28F010080DF11C0C8CE80F0027B9D5
:101B900018F4806701D0002227E008F02000219F80
:101BA00080F0610000F1F6094FF0000A0DF12C0BF6
:101BB0003046294622463B46FEF7B9FB00FB14623D
:101BC00002F0FE030A2B4B4638BF3023361B13446A
:101BD0000AF1010275EB07060BF80A3005D3BAF1DA
:101BE0001F0F924606460D46E2D30BA8CDE9000230
:101BF0001E9807ABCDE902042298239F04900FCBD7
:101C0000CDF818800597FFF7D5FE13B0BDE8F08F2B
:101C10009A4238BF88547047704700002DE9F04F52
:101C200083B0DDF83C80DDF834A0994615468B463C
:101C300006465FEA8870144610D10E982C468245FD
:101C40000CD20E982A46A0EB0A0700BF2020594666
:101C50004B46541CB047013F2246F7D1BAF1000F62
:101C600008F002000195029010D00C98A0F1010834
:101C700018F80A00594622464B46AAF10105671C8E
:101C8000B047002D3C46AA46F2D100E02746029814
:101C900088B10199DDF83880781A40450DD24D425F
:101CA000202059463A464B467C1CB04728194045EF
:101CB0002746F5D302E03C4600E03C46204603B010
:101CC000BDE8F08F024659B10278002A024607D0DB
:101CD0004942024612F8013F013101D2002BF9D1ED
:101CE000101A7047704700002DE9F04F91B08A46F6
:101CF0001A9941F619461446C0F600064FF0000B3B
:101D00004FF000080E911093BAF1000F18BF06466D
:101D100010990878002800F07882252809D0F0E092
:101D2000514642462346B0471098A84601301090CD
:101D3000EEE7481C4FF00009109004E0481C10909A
:101D40000020002822D110990878A0F12002102A42
:101D50004FF00100F5D8DFE802F00D0C0C090C0C77
:101D60000C0C0C0C0C100C130C0C160049F0100988
:101D7000E4E7E6E749F00809E0E749F00409DDE7B0
:101D800049F00209DAE749F00109D7E7109D2F78F9
:101D90003846FEF747FD18B110A8FEF723FD13E003
:101DA0002A2F10D10E9951F8040B00280E910D9096
:101DB00044BF41420D91002805F1010048BF49F0A0
:101DC0000209109001E000200D90109D28782E2827
:101DD00019D1681C10906F7849F480693846FEF775
:101DE00021FD20B110A8FEF7FDFC05460CE02A2FCE
:101DF00009D10E9951F8040B0E9120EAE071A81C4C
:101E00000D46109000E000251098017868394FEADF
:101E10007101092917D8DFE801F008127B161616A0
:101E20000516160549F480790BE0411C10914178A4
:101E3000682940F07F8049F0C009023002E049F48F
:101E4000007901301090109A1078A0F12503532BDF
:101E500000F257801021DFE813F0A800540054006E
:101E600054005400540054005400540054005400D2
:101E700054005400540054005400540054005400C2
:101E800054005400540054005400540054005400B2
:101E900054005400540054005400540054005400A2
:101EA0005400540054005400540054005400540092
:101EB0006400540054005400540054005400540072
:101EC000AD00540054005400540054005400540019
:101ED00054005400AC003E0157005400540054001C
:101EE0005400570054005400540054005400730030
:101EF000640054005400750054005700540054000E
:101F0000AD0008F101050BE729F010090A2151E0A5
:101F1000411C109141786C290FD149F4407902306D
:101F200090E712F8010F49F48879562808BF1092FB
:101F300010213FE049F0800985E749F4807982E784
:101F4000082137E00E98294650F8047B002D0E90AA
:101F5000384608BF4FF0FF31FFF7B4FE09F4806B3D
:101F6000A842294638BF0146BBF1000F08BF014611
:101F700019F002000C9040F0D7800D98814280F05B
:101F8000EF800A97A946421C471A00250B9200BF12
:101F900008EB0502202051462346B0470135AF42E9
:101FA000F6D10A9FA8444D46DCE008F10105252042
:101FB000B6E602211098007840F00802582A08BFBF
:101FC00049F02009642803D0692818BF29F00C09BA
:101FD0005FEA495248BF29F00109562814D0692800
:101FE00001D0642822D15FEA89502FD45FEAC9501A
:101FF0004ED45FEA496000F185800E985FEA09627D
:10200000006848BF00B27FE00E99A4EB080251F8C7
:10201000040B0E9141680F680AEB08010F970368E3
:1020200030460097FFF760FE804495E05FEA8950F4
:1020300037D45FEAC95072D45FEA496079D40E9B05
:102040005FEA0962186848BF80B274E00E980730F2
:1020500020F007000346426853F8080BCDE9041B43
:1020600010EBE2700E9342EBE2730D9983EAE27398
:1020700080EAE270CDE90719D70FCDE900033046B9
:1020800051464246234606950297FFF76FFD62E0F0
:102090000E9A52F8040B0E920246002848BF4242A4
:1020A00039E00E98073020F007000346426853F8E5
:1020B000080BCDE9041B0D990E93CDE90719CDE965
:1020C000000230465146424623460695CDF808B0F8
:1020D000FFF74CFD3FE019F0020927D10D980228C7
:1020E0006DD300F1010B4542002700BF08EB07024A
:1020F000202051462346B0470137E8190130F5D179
:10210000B8445EE00E9800780246002848BF42427C
:102110000E9B04330E93C00FCDE900200FE00E9A02
:1021200052F8040B0E9208E00B911BE04FF0010BEC
:1021300047E00E9B187804330E93CDE9000B0D9801
:10214000CDE9021504903046514642462346CDF86B
:102150001490FFF7C1FC8046109801301090D7E52D
:10216000481C0B903878A0B107F101090BE000BFC3
:10217000C0B251464246234608F10107B04719F85C
:10218000010BB84630B1BBF1000FF1D00DB1013DEC
:10219000EEE747460C98A0B30D980B99814230D2D8
:1021A000451A4FF0000B00BF202051463A46234607
:1021B00007F10108B047013D4746F5D1CCE74FF0A4
:1021C000020B0E99424611F8040B23460E9151461C
:1021D00008F10107B047B9F1000F12D00D988345FF
:1021E0000FD2A0EB0B054FF0000B00BF2020514693
:1021F0003A46234607F10108B047013D4746F5D16D
:10220000AAE7B8464FF0000BA6E742460020514629
:102210002346A04528BF621EB047404611B0BDE826
:10222000F08F000010B54FF0000448B100F018F82E
:102230000C28014698BF0C21B0F5804F38BF0C46E2
:10224000204610BD20F00300704700004A1E1142D6
:1022500004D108440138494208407047FEE70000B5
:102260004A1E114204D108440138494208407047CF
:10227000FEE700002DE9F04F85B09246427A0C4609
:1022800002F0070140F6643940F6A81802295646C4
:102290004FF01301C2F20009C2F2000808BF26463F
:1022A0005445C8BFA24601EB4A02D9F80070D8F8DD
:1022B000001040F6683BC2F2000B22F003057A1AC8
:1022C000DBF800102A448A4204D2796821F00041E8
:1022D00079603BE08D42039009D9284610F0DAFC82
:1022E000002850D00746406840F000402CE0DBF862
:1022F0000010CDE901468A421FD949F2AD044BF2E4
:10230000F157C0F6000404AEC0F600074FF0FF30EE
:10231000049020463146002209F02EF93846314615
:10232000002209F029F9D9F80000D8F80010401A65
:10233000DBF8001028448842E8D8D9F80070DDE9BD
:102340000146786820F000407860039831B2224658
:1023500001F038FF386078680121B0F1FF3F61F388
:102360001E007860A7F80CA0FE8108DDD9F80000F7
:1023700000F110012844B960C9F8000004E007F139
:102380001000B86000E00027384605B0BDE8F08FC7
:1023900080B540F62420C2F200000121017040F611
:1023A0009000C2F20000FEF78FFE014640F69C004E
:1023B000C2F20000006811B116F0BAFA80BD16F042
:1023C000A7FA80BD10B5044690F8420010F0020153
:1023D00009D1B4F8402032B14FF6FF739A421CBFC6
:1023E000013AA4F84020B4F8402012B9C1B9A26B58
:1023F000B2B1D4E90E235B42002A236308BF10BDAB
:1024000011B9616B4942216380F0020084F84200F7
:10241000206AD4E90A13C4E90A022162A36310BD49
:1024200040F69000C2F200002146FEF7B3FEFFF72F
:10243000AFFFE16809B120468847216909B120460C
:102440008847204610F0ECFC10BD00002DE9F04755
:1024500040F67838C2F20008D8F8000016F02EF9DD
:1024600040F62C29C2F2000999F80010044681F0C8
:10247000010089F8000040F69000C2F20000FEF76B
:1024800023FE002863D040F6242740F69005064638
:10249000C2F200074FF0000AC2F2000507E000BFD9
:1024A00028463146FEF716FE064600284FD096F81D
:1024B000420099F80010C0F380028A4287F800A019
:1024C0003ED000F0FB0242EA8101020786F842108A
:1024D0001AD4316B002917DC091915D4C00709D1AA
:1024E000716939B130468847316AB26A0144104493
:1024F0003162B062B16809B13046884796F842004F
:1025000040F0080086F84200306B0019306317D4A1
:10251000F16A8842C8BF3163F16930468847726A00
:10252000904205D07268014670620AB130689047E7
:10253000D6E90B01814203DB3046FFF743FF00BFC2
:1025400038780128ACD12846FEF7BEFDACE716F07E
:10255000BBF8C8F80000BDE8F0870000B0B504463D
:1025600040680D4610B12946FFF7F8FF2268002A9F
:1025700008BFB0BD204629469047B0BD80B589B29E
:102580000AF01EFA80BD00002DE9F04F91B048F628
:10259000D8184FF6F07942F27D5A0826C2F20008A8
:1025A000C0F2FF09EB46C0F6000A00BF48F6D4109F
:1025B000C2F20000006809F0F1FE054614F040FC8C
:1025C0000BF004F80BF01AF881B200EBD13000B236
:1025D0004110062018F0C2F807460AF0F7FF0BF08A
:1025E0000DF881B200EBD13000B24110062018F096
:1025F000B5F839B202B2284614F028FE2846414602
:102600004FF4003210F052FE0020494618F0A6F8B0
:102610000AF052FDC0EA0404284621464FF4003275
:1026200014F010FF284600210AF006FA3220FA21A1
:1026300018F094F80746584609F074FD58462946A4
:1026400009F020FE5846514609F0CCFD584640F2AC
:10265000671109F00BFE5846394609F0F7FD584658
:10266000394609F0CFFD584609F0DCFD584609F01F
:1026700019FE284606F0A0F9013E97D111B0BDE839
:10268000F08F000010B548F6D814C2F200042046BE
:1026900015F016FC20460D2115F02CFC40F2BC0074
:1026A000C2F2000000787F210028204608BFFF21E9
:1026B00015F01AFCFFF768FF10BD000010B548F6D2
:1026C000D814C2F20004204615F0FAFB204602217D
:1026D00015F010FC40F2BC00C2F2000000787F212F
:1026E0000028204608BFFF2115F0FEFBFFF74CFF36
:1026F00010BD00002DE9F04F97B09246279A169131
:10270000111F10291293119000F2BA810020099034
:102710000220159000220F92DFE811F02500110031
:102720001500B201B201B201B201B201B201B201AF
:10273000B201B201B201B201B201B2011F00012027
:102740000F9003200CE0FEF7B9FF0068008F09909E
:1027500001200F900220159005E001200F9002202B
:10276000159000200990249D012DC0F289811299B5
:10277000119A01FB0AF002EB400001901698DDF877
:10278000989001380B90AAF1010002901598DDE9AC
:10279000224648430A90DDE920CB4FF0000800278D
:1027A000CDF840A009E000BF002009F8080001377B
:1027B0000FFA87F8A84580F2638108FB04F00CEB60
:1027C00020200028F0D408FB06F10BEB21210A128F
:1027D0005245E9DA0029E7D4169B4FEA202E9E45A0
:1027E000E2DAC4B25FFA81FB6FF0FF0101EB440350
:1027F000802C4FF0010501EB4B014FF0FE0038BF7C
:10280000A0EB4403149338BF4FF0FF35BBF1800FAA
:1028100038BFA0EB4B01139112994FF0010902FB55
:1028200001E038BF4FF0FF39119B159E02FB01FC00
:1028300000FB063309EB020050451CDA169905EB44
:102840000E0A8A4517DA5AEA000114D4159905FBD5
:10285000013A0A9901FB09320F99D1B1279914293C
:1028600068D0062975D0052940F08C809C78967830
:102870009AF8025089E027991888259D142925F88F
:10288000180014D0062917D005290CBF9978FF210C
:1028900018E01988BAF800A01288DDF89890DDE9F0
:1028A0002365DDE920CBFF2009F80800A2E00198AC
:1028B000604410F80E1005E0099980B2091A18BF9B
:1028C0004FF0FF310020DDF840A0802C38BF012000
:1028D0000B9BBEFA8EF56D09BEEB0306DDF89890F2
:1028E000DDF880C005EA000518BF012630438542A7
:1028F00012D00020BBF1800F38BF0120029EB2FA37
:1029000082F35B09921B03EA000318BF0122104304
:10291000834204D0002008E0C8B2149901E0C8B294
:102920001399C1F1FF014843000ADDE92365DDE9A0
:1029300021B43AE7019E06EB0C0101EB0E0C11F8F5
:102940000E4012991CF8055000FB016010F80E6053
:102950001BE018880999DDF884B0814208D01088FE
:102960000999814204D0BAF800000999814209D13D
:10297000DDF89890DDE92365DDF880C0002009F8D6
:10298000080032E0FF24FF26FF25DDF89890DDF8EF
:1029900080C0A64207D01399C1F58070604301FB47
:1029A0000600C0F30726DDF884B0A54207D01499CD
:1029B000C1F58070604301FB0500C0F30725A9192C
:1029C00000204E08B0EB510F09F808600BD01988B1
:1029D0001288BAF800A0DDE92365012050B9CDE9DD
:1029E0000CA20E9148E0DDE923650E99DDE90CA209
:1029F0000028F4D08CB290B284420E9109D11FFA13
:102A00008AF0844205D12598CDE90CA220F818104F
:102A100032E003994FF6FF70049B21EA0000011990
:102A20001398C2EA0303C2B21846049303910AF052
:102A30000BFC514682460598149AC1EA000006999B
:102A4000D2B26FF30F012144CDE905010AF0FCFB7E
:102A5000014607980C91C1EA000008997F22CAEA52
:102A60000101CDF834A0CDE907010AF0EDFB25996D
:102A7000DDF880C021F81800DDF840A0229C96E621
:102A800017B0BDE8F08F00002DE9F04F81B0DDF800
:102A900038C00093BCF1010F37DBDDF840E0DDE921
:102AA0000CB4DDF828A00025002706E00026013739
:102AB0000EF805603DB2654527DA05FB0BF30AEB1E
:102AC0002328B8F1000FF1D40B9E05FB04F306EBAD
:102AD00023234FEA232991454FF00006E7DA002B24
:102AE000E5D44FEA28238B42E1DA009E09FB063346
:102AF00003EB4303C65A00EB030823460F9C24F85C
:102B0000156098F802601C46D1E701B0BDE8F08F6F
:102B10002DE9F04182B00AF059FD48F6D012C2F218
:102B200000021278016849F66903C0F601034B629E
:102B3000AAB1406840B1016840F64822C2F20002E2
:102B40001160012115F0FAFE09F0E6FA016840F67D
:102B50002822C2F200021160012115F0EFFE14F0EC
:102B600065FF044614F06CF92046FF210022002581
:102B700014F078FC20460FF0E9F948F6EC16C2F2A2
:102B8000000604210422306014F040FB20460FF0C0
:102B9000DDF948F6E0183168C2F200080D22002382
:102BA000C8F80000009510F0EFFB204610F0D4FFAD
:102BB00048F6D417C2F20007386014F041F93D68B6
:102BC000204613F0B7F80646204611F029FCD8F845
:102BD0000010498B401A043802B22846314614F0DE
:102BE00035FB386805210022002310F0BFFB48F6B2
:102BF000D810C2F2000015F04DF8204614F042FD46
:102C000002B0BDE8F0810000B0B50D46044600F00A
:102C100035F800B1FEE7284600F01EF96168084467
:102C200004306060204600F035F82046B0BD00005A
:102C300010B50C4600F010F904F11002002190428A
:102C400028BF0121084610BD08387047B0B582B0D2
:102C5000054608460C4600F0FFF801A96A4616F042
:102C6000C1FDDDE900322846214608F077FA02B0BE
:102C7000B0BD0000406800F00100704780B500F072
:102C8000EBF8B0FA80F0400980BD0000406800F029
:102C90000200704710B5044600F07CF8046010BDD7
:102CA00070B582B00D46044600260196009669B1C3
:102CB00001A96A46284616F0ADFD0198072807DCF1
:102CC00001A96A46204618F08FF8064616B90EE0AC
:102CD000002666B1304600F0BFF8A84201D200BF1E
:102CE000FEE7DDE900322046314617F059FC304658
:102CF00002B070BD10B50446FFF7CCFF00F094F8A9
:102D0000204600F08BF810BD10B5044600F042F8E4
:102D100000F090F8204600F099F810BD70B5064616
:102D200008460C4600F036F850B10546FFF7A2FF02
:102D300078B12046FFF7A2FF18B100BFFEE700BF41
:102D4000FEE73046294600F055F820462946FFF7B1
:102D50005BFF204670BD000070B5064608460C4675
:102D6000FFF794FF98B1204600F03AF860B10546AD
:102D7000FFF780FF50B13046294600F03BF8284667
:102D80002146FFF741FF70BDFEE700BFFEE720468A
:102D900070BD0000B0B50446FFF770FF08B100BF7A
:102DA000FEE7204600F088F80546204600F054F87B
:102DB000011F284616F05CFEB0BD0000002904BFCC
:102DC0000020704752B110B50C4600F077F820464D
:102DD000FFF79AFF204600F06FF810BDFEE70000F5
:102DE00010B50446FFF752FF10B1206810BD00BFB8
:102DF000FEE70000B0B582B0054608460C4600F07C
:102E00002BF801A96A4616F0EDFCDDE900322846F0
:102E1000214617F0C5FB02B0B0BD0000416841F08B
:102E20000101416070470000416841F002014160CA
:102E300070470000416821F00201416070470000C6
:102E4000426802F00302114341607047416821F07B
:102E50000101416070470000406820F003007047A6
:102E6000F0B581B00C46054600F026F8211F16F09B
:102E7000FFFD064600F020F804210746FFF7E6F9BB
:102E8000874200D0FEE72846FFF7E6FF001B011F40
:102E90003046FFF7D5FF3046FFF7DEFF0B2809D994
:102EA00028462146FFF7CCFF3046FFF723FF304688
:102EB00001B0F0BDFEE700000830704770B5044671
:102EC000084616460D46FFF7D5FEB8B128463146EE
:102ED000FFF7AEFE002808BF70BD28463146FFF759
:102EE000BFFF06462846FFF7D5FE3046FFF79CFF9A
:102EF00020463146FFF7AAFE70BD00BFFEE7000086
:102F000070B50446084615460E46FFF7B3FE00B1FD
:102F1000FEE730462946FFF78BFE002808BF70BD4C
:102F200030462946FFF79CFF0546FFF783FF204602
:102F30002946FFF7F3FE01462046FFF787FE70BDE6
:102F400010B548F6D814C2F20004204614F0B8FFB9
:102F50002046032114F0ECFF40F2BC00C2F2000056
:102F600000787F210028204608BFFF2114F0D4FFFD
:102F700016F0E2FD10BD000010B548F6D814C2F2FC
:102F80000004204614F09CFF204647F6FF7115F020
:102F90007FF82046032114F0CBFF40F2BC00C2F2C0
:102FA000000000787F210028204608BFFF2114F090
:102FB000B3FF16F0C1FD10BD10B548F6D814C2F22B
:102FC0000004204614F07CFF2046082115F060F82C
:102FD0002046032114F0ACFF40F2BC00C2F2000016
:102FE00000787F210028204608BFFF2114F094FFBD
:102FF0002046042114F096FF16F09EFD10BD00003F
:1030000010B548F6D814C2F20004204614F058FF58
:103010002046082115F03CF82046032114F088FFD3
:1030200040F2BC00C2F2000000787F210028204658
:1030300008BFFF2114F070FF20460C2114F072FF2E
:1030400016F07AFD10BD000010B548F6D814C2F293
:103050000004204614F034FF2046082115F018F82B
:103060002046032114F064FF40F2BC00C2F20000CD
:1030700000787F210028204608BFFF2114F04CFF74
:1030800016F05AFD10BD000010B548F6D814C2F273
:103090000004204614F014FF2046082114F0F8FF25
:1030A0002046032114F044FF40F2BC00C2F20000AD
:1030B00000787F210028204608BFFF2114F02CFF54
:1030C0002046032114F02EFF16F036FD10BD00003F
:1030D00010B548F6D814C2F20004204614F0F0FEF1
:1030E0002046082114F0D4FF2046032114F020FFCD
:1030F00040F2BC00C2F2000000787F210028204688
:1031000008BFFF2114F008FF2046022114F00AFF37
:1031100016F012FD10BD000010B548F6D814C2F22A
:103120000004204614F0CCFE2046082114F0B0FF25
:103130002046032114F0FCFE40F2BC00C2F2000065
:1031400000787F210028204608BFFF2114F0E4FE0C
:103150002046062114F0E6FE16F0EEFC10BD00003D
:103160002DE9F04F85B00C460021054611F074F8AA
:1031700030B32846214600F0A5FA2846214600F043
:103180006BF8284612F082FA8146284612F0F2FACD
:103190000490284611F054FF0646284612F02CFDF4
:1031A0000746284612F050F942F2D1718F4282460A
:1031B0000DD1688C012100F4806081EA902B08E039
:1031C00020461C210FF09CFF05B0BDE8F08F4FF0AA
:1031D000000B701EB0FA80F04FEA5018284611F02C
:1031E000AFF80646284606F049FEA168236927681D
:1031F0000246CDE90031304659464B46CDF80C80A9
:10320000029707F009FB208342F2D1704FF00009CA
:1032100082454FF0000605D1688C012100F4007052
:1032200081EA5026284611F073F80746284606F032
:1032300029FEE16863696568CDE90031049B0246B7
:1032400038463146CDF80C90029507F0E5FA6083D8
:1032500005B0BDE8F08F00002DE9F04F81B0894640
:10326000064606F075FD8246304611F069F800907A
:10327000504601F0ADF8C9F8100040000FF04AFDCB
:10328000D9F81010C9F8000048000FF043FDD9F834
:103290001010C9F8080000294FD040F2010B41F688
:1032A0009A72C0F2060B4FF0000811E0D9F808003E
:1032B00021B241F69A7200294FF00001D8BF0C46A6
:1032C00020F81840D9F8101008F10108884534D2C8
:1032D0003AF818009042F5D1304610F0CFFF0028A0
:1032E0004EF20104E2D000254EF2010406E000BFD8
:1032F0003046013510F0C2FF8542D7D2304629460C
:1033000010F0AAFF5946074612F022FD0028EFD11F
:10331000384606F027FD0128EAD1384606F01CFDA4
:103320008045E5D1384612F005FD21B28142DFDC4F
:10333000384612F0FFFC0446DAE74FF00008D1B13E
:10334000002041F69B7241F69A7C002700240BE096
:10335000D9F80850634514BF25F8103035F81030FF
:103360001F440130814208D03AF910309342EFDB1C
:1033700023449C1AF5E700240027304612F086F912
:10338000D9F81010009B4A1E02FB1030C01B02B27D
:10339000002AD8BF4046E9B183B24FF0FF37002280
:1033A00041F69B764FF0000803E000BF01329142E6
:1033B00012D03AF91250B542F8DBAF1B0FFA87F87A
:1033C00008FB03F7B7FBF4F7D9F8085025F812709B
:1033D0001746EBE74FF0FF37002F0AD481B2A4EB7A
:1033E00008025143B1FBF4F1D9F80820401A22F841
:1033F000170001B0BDE8F08F2DE9F04F83B0002138
:10340000002204464EF2010A13F082FE204611F01B
:1034100005FF0546204612F0BDF94619204612F078
:103420000BF90544204611F081FD304428440FFA81
:1034300080FB2046029510F021FF002845D005466C
:10344000019630B201264FF00008C0F204064EF299
:103450000109009010E000BFB7F91A00B4F9161086
:103460000FFA89F2401A00F101099145B8BF91465F
:1034700008F1010845452AD0A0683146006850F897
:103480002870384612F064FC0028F1D1384612F05A
:1034900003FF0028E0D1384611F06EFD0328DBD988
:1034A000384612F0C1FB0028E2D107F114000FFAF0
:1034B00089FA09F06DFB0099014451454EF2010A69
:1034C0000199A8BF00EB0109D2E74EF20109029968
:1034D0001FFA89F049440AB25A45D8BF59465045A7
:1034E00008BF594608B203B0BDE8F08F2DE9F04F90
:1034F00083B00021002204464EF2010B13F0F2FDCE
:10350000204611F08BFE0546204612F009F94619B7
:10351000204612F0CBF84719204611F015FDB919D5
:1035200008440FFA80F9204610F0A8FE0546204610
:1035300011F06AFD01284FD1002D019700F098800D
:10354000029630B201264FF0000AC0F204064EF295
:103550000108009010E000BFB4F91800B7F914108A
:103560000FFA88F2401A00F101089045B8BF904662
:103570000AF1010A55457DD0A0683146006850F82F
:103580002A70384612F0E4FB0028F1D1384612F0D8
:1035900083FE0028E0D1384611F0EEFC082806D85A
:1035A000012101FA00F040F249110842D4D1384615
:1035B00012F032FB0028DBD107F114000FFA88FB70
:1035C00009F060FB0099014459454EF2010B029944
:1035D000A8BF00EB0108CBE7002D02964DD040F2CA
:1035E000010A38B20026C0F2040A4EF2010801971F
:1035F00000900EE0B7F91800B4F914100FFA88F231
:10360000401A00F101089045B8BF90460136B54216
:1036100035D0A0685146006850F82670384612F040
:1036200097FB0028F2D1384612F036FE0028E1D18F
:10363000384611F0A1FC072805D8012101FA00F055
:1036400010F0930FD6D1384612F0EEFA0028DDD1F3
:1036500007F114000FFA88FB09F014FB00990144EC
:1036600059454EF2010B0199A8BF00EB0108CDE7C7
:103670004EF201080198404403E04EF2010802981E
:1036800040441FFA88F1594508BF084602B281B28A
:103690004A45D8BF4846594508BF484600B203B01E
:1036A000BDE8F08F10B5044600680FF0A3FB60681A
:1036B0000FF0A0FBA0680FF09DFBE0680FF09AFBF5
:1036C00010BD00002DE9F04F81B08846064606F097
:1036D0002BFF814600F07CFEC8F8140040000FF07C
:1036E00019FBD8F81410C8F8040048000FF012FBBA
:1036F000D8F81410C8F80C00002950D040F2010A84
:1037000041F69A72C0F2060A4FF0000B12E000BFB9
:10371000D8F80C0021B241F69A7200294FF000014E
:10372000D8BF0C4620F81B40D8F814100BF1010B41
:103730008B4534D239F81B009042F5D1304610F059
:103740009DFD00284EF20104E2D000254EF2010456
:1037500006E000BF3046013510F090FD8542D7D21B
:103760003046294610F078FD5146074612F0F0FA2F
:103770000028EFD1384606F07FFF0128EAD138460D
:1037800006F074FF8345E5D1384610F049FE21B2BA
:103790008142DFDC384610F043FE0446DAE74FF0A2
:1037A000000BD1B1002041F69B7241F69A7C0025B6
:1037B00000240BE0D8F80C70634514BF27F81030D4
:1037C00037F810301C440130814208D039F91030EC
:1037D0009342EFDB2B449D1AF5E700240025304689
:1037E00011F0C8FF8246304610F092FDD8F8141050
:1037F0004A1E02FB1A00001B02B2002AD8BF58461C
:10380000E1B183B24FF0FF36002241F69B744FF0D6
:10381000000B02E00132914212D039F91270A74236
:10382000F8DB3F1B0FFA87FB0BFB03F7B7FBF5F742
:10383000D8F80C6026F812701646EBE74FF0FF360A
:10384000002E0AD481B2A5EB0B025143B1FBF5F176
:10385000D8F80C20401A22F8160001B0BDE8F08F0D
:1038600010B5044612F00CF998B9204612F05CF934
:10387000B0F5807F0DD1204611F0B0FEFF281CBFAF
:10388000012010BD204611F071FC002818BF012056
:1038900010BD022010BD000010B582B0B1F800C00C
:1038A0000389B1F802E044899C44ADF800C004EB00
:1038B0000E0CB1F804E0C9887344ADF8043021441B
:1038C0004369ADF806106946ADF802C0984702B0EA
:1038D00010BD00002DE9F04F8FB0914608900A917D
:1038E000C8780E924CF6DD514CF6E952C0F6000154
:1038F000C0F6000210F0010008BF0A464CF6D9419C
:10390000DDF870B0DDF8688005924CF6D932C0F66B
:1039100000019A46C0F600020B4608BF1346099301
:10392000002808BF0A46069205E000BF4FF0000CD1
:103930005FEACC705BD0BBF80200DBF81010BBF87C
:103940000420A0EB020EA9B1DBE90312002701F16C
:103950000803002108E000BF1E88AEEB060E013709
:10396000974203F1140306D21E7AF607F4D19E881B
:103970003144F4E70021DBF81020002AD6D00022E1
:1039800000274FF0000C06E0DBF8100001378742FB
:1039900002F11402CCD2DBF80C601644357CEC0743
:1039A000F2D10C0422D00CB20FFA8EF393FBF4F395
:1039B000F468B6F904006343B6F906401BB2A342AB
:1039C000B8BF1C468442B8BF04469C421EBF45F0A7
:1039D000010030744FF0010CDBF80C00AEEB040E6C
:1039E000104483890481C91ACEE700BFFEE7089E10
:1039F000304611F01DFB0A9D00210446ADF836103B
:103A00002878BBF90220BBF90830ADF834100DF16D
:103A100036010DAF00914146019716F037F8012CA1
:103A200007940BD1E87810F0010007D0304610F071
:103A300087FCBDF836100844ADF8360030464946DC
:103A400010F00AFC002800F0328104460E98504520
:103A500000F02D81BDF834000127C0F206070DF1FA
:103A600038080490CDF80CA02046394612F070F9C1
:103A7000002840F00F81204611F02EFC98B1DBF8B1
:103A8000100070B1DBF80C000021083050F8082C51
:103A9000A2420DD0DBF810200131914200F1140058
:103AA000F4D3002605E0608C20F4C060608430E030
:103AB0000688E978608CC9074FF4806120F4C06003
:103AC00008BF4FF40071084404F114070999608499
:103AD0003846884780B286421BD0204612F07EFBD3
:103AE0000DF12C084046394609F01CF8059A31B210
:103AF000384690472046292142460CF00DFC2046CE
:103B000010F0D6FC222122460CF006FC204612F0D2
:103B100065FB687801280FD0022815D1BBF9000099
:103B20000699013020F0010604F114008847301A8C
:103B300000EBD070461008E00699BBF8006004F175
:103B400014008847361A00E00026079801280CD197
:103B5000E87810F0010008D0099904F114008847B2
:103B6000BDF83610081AADF83600204611F0F4FF03
:103B70008246204612F008F88046204612F0DAF815
:103B80000746204610F04CFC0AF4C041B1F5005F36
:103B900013D12AF4C041B1F5FA6F0EDCB1F57A7F8A
:103BA000C8BFC1F57A7148F21F527943C5F2EB12D2
:103BB00051FB02F14A1102EBD17A08F4C041B1F590
:103BC000005F13D128F4C041B1F5FA6F0EDCB1F5F6
:103BD0007A7FC8BFC1F57A71484348F21F51C5F2D8
:103BE000EB1150FB01F0411101EBD078A1460A9A8C
:103BF000189D39F8140FBDF83670D27855443B46FD
:103C0000281AB9F8021012F0010208BF3346C5188D
:103C10001998002A404408BF3E46401A064445EA27
:103C20000600000417D0204612F0D8FAA08A218B93
:103C30002844A0824819E18A20838819618BE08298
:103C400088196083204612F0C9FA29B232B22046A0
:103C5000002312F06FFB0798DDF80CA00A9D0128E5
:103C60000DF1380808D1E87810F0010004D01B9855
:103C70000499381A401A07E00999484688471B9961
:103C80003944084404990844089E0127ADF83600D9
:103C9000C0F20607E8784246C0F38001304606F0DD
:103CA00085FA20B104460E9850457FF4DDAE0FB082
:103CB000BDE8F08F2DE9F04F8FB0002900F0918121
:103CC000044600680D460028218318BF0FF0A8F8AD
:103CD00005EB4500062101EB40000EF0DBFF00EB99
:103CE000450100EB850202310432012DC4E90000D8
:103CF000A260E1600BD1B4210170D4E902014FF45C
:103D000080320A60002101800FB0BDE8F08F6800AA
:103D100002940095AC00851CA8000EF0FBFF8346C2
:103D200000EB45000EAE049022B20DF13601304694
:103D300000F064F9BDF93800002580100990304684
:103D4000059500F051F9002800F0C18000200EAF69
:103D50000DF136060DF124080DF11409002503902C
:103D600022E000BF28B22BF8101004990DF1140CBA
:103D700021F810409CE80E10DDF808A01144194409
:103D800001EB0C020121DAF8043001341A54DAF89C
:103D900004200D44135C03941B011354384600F0B7
:103DA00023F9002800F093804FF0000A384631468E
:103DB00000F02CF9384600F017F980B1BDF8380052
:103DC00001B2891000F0030048F82A1049F82A00CF
:103DD0000AF1010ABAF1040FE8D14FF0040A039C7A
:103DE000BAF1040F73D109990C988142BAD00A989C
:103DF000814225D10B9B059A9942049B28B22BF84E
:103E0000101023F8104041D1DDE9063CDDF808A090
:103E10001A44DAF8043062441A54DAF804200139FA
:103E2000135C1B011354681C00B22BF810109DF892
:103E30002010049A22F8104001F10C0245E000BF66
:103E4000049B28B2DDF808A02BF8101023F81040CE
:103E5000DAF804C0DDE9054201390CF800400192AE
:103E6000DAF80420DDF81CC0145CDDF820E0240141
:103E70001454681C00B22BF810100399039C23F80B
:103E800010100199614471440A1D1EE0DDF808A07C
:103E9000DDF818C0DAF8044062442254DAF804204D
:103EA0000139145CDDF81CC024011454681C00B2F4
:103EB000DDF820E02BF81010DDE90312039C22F856
:103EC00010100CEB0E0101F1080202215BE728B291
:103ED000431EDDF800E040F2D3213BF913700EFBE6
:103EE00001F2B7EBA22F4FEAA22106D1049F37F9C6
:103EF0001330994201D1029C1AE06FF39F22B2F570
:103F0000007F02D85243D20B05E0C2F580625243D3
:103F10000F23A3EBD232049B029C2BF8101023F842
:103F20001010616801350A5461680A5C12010A5474
:103F300028B2022818DBABF104010BEB8E0200BFA4
:103F400032F810302FB22BF8173031F81030049EB1
:103F5000013526F8173063681E1816F8026CDE5516
:103F6000831E0138002BEBDCD4F80CC029B20020F2
:103F70000129ACF8000031DBA2680BEB8E00831D39
:103F80004FF0000E002405E026460EF1010E8E4291
:103F9000344623DA0FFA8EF52CF815403BF814005E
:103FA0008C4222F81500EFDA049830F814601FFAFA
:103FB0008EF08642E8D100BF32F815603BF91470EC
:103FC000BE42B8BF3746661C8E4222F81570DCDA56
:103FD00033F8144084423446EED0D6E758460EF00B
:103FE00009FF0FB0BDE8F08FB0F90010B0F9022062
:103FF00000208A42D8BF01207047000000230280C1
:104000004380C2F10100088070470000B1F9002030
:10401000B0F802C0002A0ADD0388ACEB030302EB10
:10402000430205320A8001884A1E014602E002EB83
:104030004C0203320A804188013141807047000000
:10404000F0B581B0022A4FEA112E39D9C1F3C40C60
:10405000C0F3C403634400F00706C0F342371F24D3
:104060001F2B28BF2346C1F3423547EAC6064FEA55
:10407000C30C01F00703354405EBC303C0F3042070
:104080000EF01F073F2B384428BF3F231F2838BF9F
:10409000044604F01F004CEAD30CFF2A40EA431EFA
:1040A0000DD05FFA8EF05FFA8CF343EA002089B2FC
:1040B00009F098F8014680B24FEA102E00E0614600
:1040C000C8B240EA0E2001B0F0BD0000B0B5022A2F
:1040D0004FEA112E34D9C0F3C40CC1F3C40303FB5F
:1040E0000CFCF82303EA9C0CC0F304240EF01F031D
:1040F00003FB04FEC0F342331C46C1F3423560F3B8
:10410000C50461F3C50505FB04F0440A43EAC40392
:104110006B436FF01F0505EA53034CEA5020FF2A5A
:1041200043EA5E1E0BD05FFA8EF340EA032089B2A9
:1041300009F058F8014680B24FEA102E00E001461F
:10414000C8B240EA0E20B0BD70B5022A4FEA112E67
:1041500034D9C1F3C40CC0F3C40300F00705C0F3A5
:104160004236ACEB0303C1F3423446EAC505C0F363
:1041700004200EF01F0623EAE37C01F007032C4421
:10418000301A04EBC30320EAE070C3F3C20400F06A
:104190001F0044EACC0CFF2A40EA431E0DD05FFA10
:1041A0008EF05FFA8CF343EA002089B209F01AF826
:1041B000014680B24FEA102E00E06146C8B240EAE4
:1041C0000E2070BD484080EA6200704710B504467A
:1041D000C0E9020010302421FCF7ADF904F13000F1
:1041E000002100BF20220346013A43F8044FFBD1CF
:1041F0000131082900F1800008BF10BDF2E700007E
:104200002DE9F04F85B00F9E0F46311F102900F2A7
:10421000D6800546DDE910B4DDF83880DFE801F02E
:10422000095009CFCFCFCFCFCFCFCFCFCFCFCFCFA9
:10423000850028463E4608F011FD074620463946CF
:104240000EF0A4FFB5F902A0284608F07BFDB5F9F1
:10425000061004958A451DDC42464FEA4008049842
:104260005100B0F900000FFA81F91AFB020006EBC9
:1042700040065D462846314642460EF01FFE049930
:104280000AF10100B1F906100FFA80FA4E448A458E
:104290004544EFDD0F98062840F09180002F00F094
:1042A0008E804EF207000021BBF800200BF1020BBC
:1042B000824208BF2170013F04F10104F4D17EE085
:1042C000284608F03FFD0646284608F0AFFC0128C6
:1042D00075DBB5F90020B5F90230A8EB060113FB38
:1042E000082201EB410102EB4202BD180FFA81FCEA
:1042F0004FEA460EB3B2002707E000BF791C0FB2A9
:10430000344465448742F34459DA012EF6DB033D19
:10431000002100BF6A79625435F8032F2BF8112071
:1043200001318B42F6D10335E8E701A88CC028465D
:1043300008F07CFC81462846049508F003FDB9F19D
:10434000010F06461BDB04990E9BB1F90000B1F981
:1043500002105A0011FB030003994FEA460A01EBD1
:10436000400815B2002700BF5846414652460EF09D
:10437000A5FD781C07B2A8444F45D344F4DBDDF813
:104380003880DDE90332DDE90110B9F1010F16DBF8
:104390004843B2F90010B2F9022003EB400012FBCF
:1043A00008114518002700BF2046294632460EF066
:1043B00085FD781C07B234444F454544F4DB05B015
:1043C000BDE8F08F80B50130FCF740F880BD0000FB
:1043D000811E4FF0FF3041F6FF7200BF31F8023FFF
:1043E00001309342FAD1704743F60801C4F202014A
:1043F0000A6800F00F0022F0F00242EA00100860A4
:104400007047000043F60801C4F202010A6800F098
:10441000070022F4E05242EA802008607047000062
:1044200043F60801C4F202010A6800F0070022F412
:10443000604242EA403008607047000043F6A40141
:10444000C4F202010A68012822F0300208BF3032AB
:104450000A607047042888BF7047DFE800F0030C4B
:1044600019262F0043F60000C4F20200026861F32F
:1044700000020260704743F60000C4F202000268C6
:1044800001F0010122F4803242EA014101607047EB
:1044900043F60000C4F20200026801F0010122F0BC
:1044A000807242EA01610160704743F60000C4F285
:1044B0000200026F61F300020267704743F60000DA
:1044C000C4F20200426F61F30002426770470000CD
:1044D00070B543F6040541F200260446C4F2020515
:1044E000C0F27A0600F0E0F802280DD0E0B9D5F865
:1044F0009C00400418D5D5F89C00C00444BF46F683
:104500000046C0F2DC260FE02868286829682A687F
:1045100012A3C2F302429A5CC0F3881001F00F01AB
:1045200070435143B0FBF1F6266068680DA1C0F3FB
:104530000310085C21680FA221FA00F0606069682E
:10454000C1F38221515C20FA01F1E1606968C1F395
:104550004231515CC840A06070BD00BF0102040838
:104560001020000000000000000000000102030411
:1045700006070809000000000102030443F60002D8
:10458000010CC4F20202895800F01F0021FA00F069
:1045900000F001007047000010B500241120FFF763
:1045A000EDFF210B022903D8012804F10104F5D104
:1045B0001120FFF7E3FF0138B0FA80F0400910BD89
:1045C00043F6000200F01F034FF0010CC4F2020298
:1045D00001290CFA03F14FEA1040835814BF23EA73
:1045E000010119438150704710B543F6040CC4F221
:1045F000020C28B9DCF89CE04EF4805ECCF89CE01C
:10460000DCF800E000F001042EF4800040EA845061
:10461000CCF80000DCF8000061F38E10CCF800004C
:10462000DCF8000003F0070162F30300CCF800009F
:10463000DCF8000020F4E02040EA0140CCF8000063
:1046400010BD000043F60000C4F20200016841F012
:104650000101016001688907FCD5816821F003012F
:10466000816000BF816811F00C0FFBD101684FF62B
:10467000FF72CFF6F262114043F2020201600021A4
:10468000C0F2030281604260C0F8A0104FF41F0125
:10469000C160704743F60801C4F202010A6860F382
:1046A00001020A607047000043F60800C4F20200ED
:1046B0000068C0F3810070472DE9F04F8BB00E46C3
:1046C000C97A032903D201200BB0BDE8F08F174649
:1046D0003269318983461846FCF728FC50B10446FC
:1046E000007D00F01F0528460CF0BCFB30B14FF0F8
:1046F000060918E000200BB0BDE8F08F0E2D04D0A5
:10470000142D07D14FF014090DE04FF00E090120D0
:1047100058B914E028460CF099FB4FF00409002822
:1047200018BF4FF00509002048B1308818B97088CB
:10473000B0F5807F03D000204FF00509A061226A08
:1047400052B15846394616F0D3FD204601F01AFB07
:1047500001200BB0BDE8F08FA06900284FD009A858
:10476000394608F0D3F935881DB97088B0F5807FD7
:1047700028D0384608F098FA8046384608F01AFAE9
:104780000246708806F1040C00902BB209A841463D
:10479000CDF804C0FCF744FB3888BDF824107A88B3
:1047A000BDF826300144ADF824109918BDF8283022
:1047B000ADF82610BDF82A101844ADF82800881866
:1047C000ADF82A00DBF8081007AD09AA2846FCF767
:1047D0004FF8804600283ED0DBF808A0CBF8085000
:1047E000A369584631463A46CDF8009009F0E8F9F9
:1047F000CBF808A0B8F1000F3FF465AFA5E7DBF8F0
:10480000081009A83A46FCF733F860B309A808F085
:104810004BFA049000EB40000EF07CFA07ADDBF899
:1048200008A08046284609A908F070F92846012109
:1048300008F0D4FABDF92600BDF92A1088421BDD24
:104840004046CBF808A00EF0D5FA00210020002940
:104850007FF47FAF79E7204601F094FAB8F1000FBA
:104860003FF431AF71E7204601F08CFA01210120BD
:1048700000297FF46EAF68E7BDF824103A887B8882
:10488000891AC51A471E08B2039004E0BDF92A0030
:1048900001378742D4DA05A8514607AAFBF7E8FF9B
:1048A00018B3DDE903132AB22046CDF800800CF0DE
:1048B0001FFF01281DD105A8CBF808005846314636
:1048C00007AA4346CDF8009009F07AF9BDF81E001A
:1048D000BDF822100130ADF81E00481C0135002142
:1048E000ADF82200062912D1D0E7062106290ED103
:1048F000CCE720460CF030FE40460EF07BFA204616
:1049000001F040FACBF808A001210629BED0002909
:10491000BCD09BE780B5042016F050FF40F2AC708D
:10492000C2F2000000684DF68361C4F21B31A0FBA7
:104930000101880C40F66031C2F20001086008688D
:104940004FF47A71484340F65C31C2F200010860CE
:1049500080BD000080B5002808BF80BD4EF2100168
:1049600040F65C3ECEF20001C2F2000E4FF0320C77
:10497000002300BF82B2332A06D3DEF8002032388B
:1049800002FB0CF24A6004E0DEF80000504348608D
:1049900000208B600A6842F001020A600A6802F097
:1049A0000112012AFAD00A6822F001020A60020408
:1049B0008B60DFD180BD0000F0B581B0154640F6B8
:1049C0009452C2F20002106040F61800C4F20200D5
:1049D00080220260B1F90000B1F90420B1F902406F
:1049E000B1F90630111A4E1C191B4F1C214607F055
:1049F00029F846F23040C4F20200016821F00101BA
:104A0000016006FB07F14900C5604160016841F0A3
:104A10000101016001B0F0BD10B586B01620C0F2F2
:104A200030000121FFF7CCFD46F23044C4F202040D
:104A3000204600F093F84FF6FE70C0F20010CDF85B
:104A40000E001020ADF80C0043F20C00C4F201007F
:104A5000CDE901004FF00070CDF8120001A9204609
:104A600000F02EF83A200121002214F059FF2046D0
:104A70000221012200F06AF806B010BD026861F35D
:104A8000000202607047000046F20441B0F1805F0E
:104A9000C4F2020192BF086020F07040C1F8000229
:104AA0007047000046F20041C4F20201B0F1805F9D
:104AB00088BF01F500710968084018BF01207047E0
:104AC00002684BF6EF731A4002600A8903681A43C2
:104AD00002604A7C036802F0030223F4405343EA75
:104AE00002320260CA7B036802F0030223F44063CF
:104AF00043EA822202608A7B036802F0030223F405
:104B0000407343EA022202604A7B036802F001021A
:104B100023F0800343EAC21202600A7B036862F357
:104B2000861303600A7C036862F345130360B1F8DF
:104B30000AC043684FF6FF7223EA020262444260F1
:104B40000A6882604968C16070470000002A0268F4
:104B50000CBF22EA0101114301607047016821F096
:104B6000010101600021016041608160C16040F28B
:104B7000FF6100EA010246F20441B2F5C16FC4F2DE
:104B8000020105D3D208D02A88BF704701F5007111
:104B90006FF0070252FA80F04CF6CD42CCF6CC42D0
:104BA000A0FB02026FF0030000EA92000F220B68E4
:104BB00002FA00F018430860704700002DE9F04F3A
:104BC0009BB00E46C9780329C0F0ED81814619A833
:104BD000114607F0D1FFB6F92000022823DB96F832
:104BE0002200FD281FD33088E8B196F82300BDF8D5
:104BF0006410C0F3C0021144ADF86410BDF8661033
:104C0000C0F380021144ADF86610BDF86810C0F31F
:104C10000012891AADF86810BDF86A10C0F34000A0
:104C2000081AADF86A00D9F8082017A819A9FBF7E7
:104C30001FFE002800F0B781F07B062110F007006E
:104C400008BF0421775A71890DF164087C1A18BFD6
:104C50000446404609F078FDB17800250028CDE9EA
:104C60001555CDE91355CDE9115510958DF859100D
:104C70000490ADF8487008BF5FEA046000F05A8104
:104C8000B01D0590F0780394FC2888BF4FF0FF30EA
:104C900019AF0290384608F067F88346384607F0A7
:104CA000CBFFB6F900A080468345B8BF5846BAEBA3
:104CB000600FA8BF4FEA600A17A808F055F8002156
:104CC000BAF1010FB8BF0121049C0746E2430A4232
:104CD00010D138460EF01EF80AAE05460FFA8AF2D9
:104CE00019A93046002309F0FBFF3046002109F0E6
:104CF000F1FA01E04FF6FF70BDF86010BDF85C20DE
:104D0000ADF8241008A90190059810911591FF2184
:104D1000ADF820208DF858105946424613950BF0F7
:104D2000A1FE03995FFA81FBBBF1020F0AD148B1E2
:104D30008368BDF95C10BDF9642003EB4101A1EB70
:104D4000420111910590CCB3BDF95E40BDF96200FE
:104D5000844200F3138102980DF14008C6B20AE0C4
:104D6000484641460AF0A0FABDF96200844204F1C7
:104D7000010480F20381284631463A46ADF82240CC
:104D8000ADF826400EF076F9BDF95C1022B2284647
:104D90003B4609F091FC012808BF0220BBF1010F3E
:104DA0008DF85000DCD10598BDF966108068A0EB45
:104DB000410030F81400ADF84800D1E7BAF1010F16
:104DC0005DDB02984FF00008C0B2049008E000BF1D
:104DD000484610A90AF068FA08F10108C2454ED009
:104DE000BDF86600BDF95E10404404B2BDF86A002B
:104DF0008C42A0EB080006B203DABDF962008642DD
:104E0000EADC049928463A460EF034F9BDF9201040
:104E1000284622463B4609F04FFCBDF95E100128AA
:104E200008BF02208C428DF8500013DBBBF1010F4C
:104E3000ADF82240ADF8264008D10599BDF96600CD
:104E40008968201A31F81000ADF84800484610A9CA
:104E50000AF02AFABDF962008642BDDCBBF1010FFF
:104E6000ADF82260ADF82660B2D10599BDF96600B3
:104E70008968301A31F81000ADF84800A8E7BDF88D
:104E80006400BDF86610ADF81800BDF86800ADF814
:104E90001C0001EB0A00BDF86A10ADF81A00A1EB86
:104EA0000A00ADF81E0006A809F04EFC039906465C
:104EB000090608BF002E4DD00298BDF966108DF886
:104EC0005800BDF96A00A0EB0A048A440120A245FB
:104ED0008DF8500052DC02985FFA80F808E000BFBD
:104EE000484610A90AF0E0F9A2450AF1010A45DA9C
:104EF00076B1284641463A460EF0BCF8BDF95C1042
:104F00000FFA8AF228463B4609F0D6FB8DF850008E
:104F1000BBF1010FADF822A0ADF826A0E0D10598B5
:104F2000BDF966108068A0EB410030F81A00ADF8BA
:104F30004800D5E7308800287FF4A2AEF07810A9A9
:104F40008DF858004846CDF840800AF0ADF91BB006
:104F5000BDE8F08FBDF86600BDF86A105044ADF8AA
:104F60002200A1EB0A00ADF82600029810A98DF8E6
:104F700058000020139048460AF096F915B12846CB
:104F80000DF038FF019A4FF6FF7190B2059C8842F0
:104F900005D010B209F04CFF0AA809F0B7FB14B114
:104FA00020460BF057FD1BB0BDE8F08F2DE9F04F08
:104FB00091B08A460969002900F0218180469AF85B
:104FC0001A000328C0F01B811646D8F808200FAC41
:104FD00020463146FBF74CFC002800F01081D8F841
:104FE0000890C8F80840DAF810000CF093FE022888
:104FF0004FD1DAE90412002741F6FF70CDE90070C5
:105000000EA80023029713F0B3FE3488304607F051
:10501000ABFE81B200EBD130BDF8381000B201EB2D
:10502000D13204EB600012B2A0EB6200ADF83000A8
:10503000084401387488ADF83400304607F0FCFDB0
:1050400081B200EBD130BDF83A1000B201EBD132A1
:1050500004EB600012B2A0EB6200ADF8320008442D
:10506000013804ACADF83600204609F095F8DAE9CD
:1050700004309AF81A100490BAF818008DF82A1023
:10508000ADF81C000CAA40462146009708F0BAFD76
:10509000B3E0DAF810000EAC21460CF07FFA0128DC
:1050A00040F0AB8004A808F099FD9DF81C009AF828
:1050B00002109AF81C7001F00F0100F0F0009AF84D
:1050C0001A209AF81B300844BAF81810002F8DF8EF
:1050D0001C00ADF818108DF81A308DF81B2055D033
:1050E0009DF83B20BDF83930B6F90200B6F906103C
:1050F00043EA024200EB5232013A8842ADF83200F4
:10510000ADF8362079DC651C04AF0CAC15E000BFAF
:10511000A8782988BDF8322041EA004002EB5031DE
:10512000BDF83620ADF8321002EB5030B6F906204B
:1051300009B29142ADF836005FDC2A88B6F900006A
:10514000B6F90410C2F38A020244013A8842ADF86B
:105150003000ADF83420DBDCDAF810304046394658
:10516000224608F0F7FC2888BDF83010BDF834203E
:10517000C0F38A0001441044B6F90420ADF83010A1
:1051800009B29142ADF83400E6DDC1E7348830461B
:1051900007F0EAFD81B200EBD1309DF83B10BDF87D
:1051A000392000B204EB600042EA0144A5B2C5F325
:1051B000C901471AB6F802B03046ADF8307007F0B2
:1051C0003BFD81B200EBD13000B2ABEB943101EB8F
:1051D0006000C5F38A01ADF83200394400EB543069
:1051E00001390138DAF81030ADF83410ADF8360076
:1051F00004A90CAA404608F0ADFCC8F8089011B00C
:10520000BDE8F08F2DE9F04387B00E4691F82210EB
:10521000032961D38146308C00285DD096F82300A5
:1052200010F03E0F58D010F0010055D11046144632
:1052300007F09AFD0546204607F0FEFCB6F900701F
:105240008542B8BF28460DF11408B7EB600FC8BF00
:1052500047104046214607F08FFC96F82310358C06
:105260000B07BDF8140007EB05032A4696F802C0A9
:1052700096F822E0C3F1000358BF1A461044ADF877
:105280001400C8062846BDF8182058BF1846101A42
:10529000ADF8180048072846BDF8162058BF184634
:1052A0001044ADF816008807BDF81A0048BF2B4619
:1052B000C01AADF81A00781B01B20029F18BD8BFD3
:1052C000002000B28DE803404846214642463B4656
:1052D000CDF80CC000F004F807B0BDE8F083000082
:1052E0002DE9F04FA9B0349CDDE932A50F900846B6
:1052F0009B461646884609F027FA5AEA0B010746EC
:1053000008BF002F25D00F984146826827A8FBF7D9
:10531000AFFA002800F0828227A807F025FD054695
:1053200020A81C210DF0ECFE28460E950DF0F2FC95
:10533000BBF1010F239016DB0DF168094846414689
:105340005A46002309F0CCFC4846002108F0C2FF71
:105350000BE00F98ABB241463246009400F062FA7F
:1053600029B0BDE8F08F4FF6FF700DF1500909909C
:10537000339D484631465246012309F0B1FC484668
:10538000002108F0A7FF0A9012A8209025903598D8
:10539000B8F900C0ADF888508DF89900B8F904004C
:1053A000B6F900508DF89840B8F902100CEB0B04D8
:1053B000B6F904E0B8F906A0B6F902900696B6F977
:1053C0000620AC42D8BF2C460B90A0EB0B007045DA
:1053D00001EB0B06A8BF70464E45AAEB0B03D8BFE6
:1053E0004E469342A8BF1346002F0794ADF84040A5
:1053F0000890ADF84400ADF84260ADF8463008467C
:10540000CDE90C914CD0BDF89C00BDF8A010ADF8D2
:105410004800BDF99E50BDF9A200ADF84C100D99A1
:10542000DDF83CB085422DDC14464F4636B20FFA0B
:1054300083F90DF180081DE00E9F23983946ADF8E1
:105440004A50ADF84E500DF0A1FE2398BDF99C10C6
:105450002AB23B460C9F09F02FF98DF89000584670
:10546000414609F021FF0D99BDF9A200854205F1E1
:10547000010507DAB94201DDB542F5DBA245DBDA09
:105480004D45D9DD14A809F041F90A9809F0D0FC7E
:10549000099C4FF6FF71A0B2884240F0B681BAE194
:1054A000CDE904A292454FF000074FF0000A10A882
:1054B000CDE90163B8BF01274945C8BF4FF0010AD4
:1054C0006646744607F050FC00210395AE42C8BF03
:1054D00001210B9AA2424FF00002B8BF01221143F2
:1054E00041EA0A0131284FF0000041EA0701C8BF34
:1054F0000120084301218DF890100D99DDF83CA0A2
:105500004945814680F0010711DC87B9079820A939
:10551000ADF848000898ADF84C000D98ADF84A0079
:105520000C980138ADF84E00504609F0BDFEDDE99B
:10553000041200209142B8BF0120069D384311D1CA
:1055400007980899ADF84800E888ADF84C10B8F80D
:1055500006100130ADF84A00ADF84E1020A95046B3
:1055600009F0A2FE039FBE4211DCB8F800002988B2
:10557000ADF84800481EADF84C00019820A9ADF8E0
:105580004A000298ADF84E00504609F08DFE0B9887
:10559000A04211DBA888B8F804100130ADF848002B
:1055A0000198ADF84C10ADF84A00029820A9ADF86A
:1055B0004E00504609F078FEBDF89C10BDF8A000E2
:1055C000B9F1000FADF8481000F0CA80079900B299
:1055D00009B201390E948142C8BF014612A8ADF844
:1055E0004C1007F0C1FBDDF814B001284FDB044676
:1055F000B046BE4203DDDDE90C1088421EDC019896
:10560000BDF99E5007B2AF4218DD20AE2398214667
:10561000ADF84A50ADF84E500DF0B8FD2398BDF9E5
:1056200048102AB2234609F047F88DF890005046FA
:10563000314609F039FE0135AF42E7D10398804584
:1056400002DD0498584522DB0298BDF9A21000B291
:1056500088421CDA451C20AE23982146ADF84A50FA
:10566000ADF84E500DF092FD2398BDF948102AB2C6
:10567000234609F021F88DF890005046314609F094
:1056800013FEBDF9A200854205F10105E4DB08998E
:10569000BDF99C0009B201318142B8BF0146BDF895
:1056A000A000ADF84810ADF84C0012A807F05CFB64
:1056B0000128C0F2A38004460E980B99814203DAB8
:1056C000DDE90C1088421FDC0198BDF99E5007B23D
:1056D000AF4219DD20AE00BF23982146ADF84A50F5
:1056E000ADF84E500DF052FD2398BDF948102AB286
:1056F000234608F0E1FF8DF890005046314609F04E
:10570000D3FD0135AF42E7D10E980B99814202DA01
:105710000498584572DB0298BDF9A21000B2884285
:105720006CDA451C20AE00BF23982146ADF84A50E4
:10573000ADF84E500DF02AFD2398BDF948102AB25D
:10574000234608F0B9FF8DF890005046314609F025
:10575000ABFDBDF9A200854205F10105E4DB4DE09A
:10576000B5F90210B8F90220891A5945B8BF59464F
:105770000A04012AADF84C0040DB0E9E0FFA81F9B5
:1057800000240DF1800B02E001344C4536DAB8F804
:105790000200BDF99E10204407B2B8F806008F42FF
:1057A000A0EB040005B203DABDF9A2008542EBDCF0
:1057B000239831460DF0EAFC2398BDF948103A468B
:1057C000334608F079FFBDF99E108DF890008F42A6
:1057D00007DB50465946ADF84A70ADF84E7009F0F7
:1057E00063FDBDF9A2008542CEDC50465946ADF8B6
:1057F0004A50ADF84E5009F057FDC5E714A808F01F
:1058000085FF0A9809F014FB099C1AA808F07EFF8E
:1058100020B209F00DFB23980DF0ECFA29B0BDE899
:10582000F08F00002DE9F04F8FB08A46189C05904C
:1058300006A81C211F4691460DF062FC0DA8B9F97F
:1058400000100690ADF82070BAF90270BAF90400A1
:10585000B9F9028055464E468DF83040BAF900201D
:105860000191B9F9041035F906BF36F9064F0490D5
:10587000ADF83800A8F10100474503910292ADF858
:105880003420ADF83670ADF83A0003DC059806A96F
:1058900009F00AFD3088A34500F10100ADF836009B
:1058A0002888ADF83A0004DB059806A909F0FCFC4D
:1058B0003546BAF80000B9F80010ADF83400481EBB
:1058C00049464745C8BF51464988ADF83800ADF84C
:1058D0003610DDE9012128889142ADF83A0003DC59
:1058E000059806A909F0E0FCB9F80400DDE90321F8
:1058F0000130ADF83400BAF804009142ADF8380038
:1059000003DB059806A909F0CFFC0FB0BDE8F08FC6
:10591000F0B581B040F64C27C2F200073968054661
:10592000084607F067FE29680446CE6B716B09B123
:10593000304688472068A8B1606898B13868E26846
:105940000068B0F90010B0F902004843824206D165
:1059500008E000BF38680068816A01B188472069A3
:105960000028F7D10120206138680068C06881698B
:10597000C90702D08069800701D4002000E001201F
:10598000606167692868416979B10369D6E90021D6
:1059900013F0300F18BF13F0040302D1FDF77CFFA2
:1059A00003E00846114600F015F8206838B1616838
:1059B00029B137B92A68126912F0010201D001B089
:1059C000F0BDA268824202D0A06001B0F0BDA1602B
:1059D00001B0F0BD2DE9F04F89B040F64C22C2F283
:1059E000000212680C4615682B6903F006010629AF
:1059F0003AD08046C3F30110012818BF032836D1DE
:105A0000104607F0F7FD0746404607F047F90646FF
:105A1000404607F0C9F84FF42061B1FBF6F2314679
:105A200006468242A8BF024628690692B8F80220BC
:105A300000F0300010280592079127D1B8F8000037
:105A40006988C04308440799A8F80600401A013045
:105A5000A8F80200012E23DA4FF0000ABAF1000F75
:105A600002D050460DF0C6F909B0BDE8F08F02280B
:105A7000FAD128464146224600F0BEF82846414663
:105A80002246FDF709FF09B0BDE8F08FB8F8000025
:105A9000A8F8020008440138A8F80600012EDBDB54
:105AA0000598CDF82080C24308440138029090B296
:105AB000C1F1010301904FF0000800204FF0000BEE
:105AC0004FF0000A039304920CE000BF07990FFA0D
:105AD00089F048430FFA8BF804EB4004B0454FEAD5
